S0120000746573745F6D6F746F722E73726563C2
S11300000C9434000C944F030C9477030C9451001B
S11300100C9451000C9451000C9451000C94510018
S11300200C9451000C94BD030C9451000C94510099
S11300300C9451000C9451000C9451000C945100F8
S11300400C9451000C9451000C9451000C945100E8
S11300500C9451000C9451000C9451000C945100D8
S11300600C9451000C94510011241FBECFEFD8E022
S1130070DEBFCDBF11E0A0E0B1E0E2EFFBE002C0E3
S113008005900D92A435B107D9F721E0A4E5B1E0BC
S113009001C01D92AF36B207E1F70E9409030C9428
S11300A0F7050C9400008093BB0084E88093BC00A7
S11300B0ECEBF0E080818823ECF78091B900887F35
S11300C0883211F480E0089585E10895ECEBF0E0C6
S11300D0108294EA908390819923ECF79091B9006F
S11300E0987F983011F09031A9F4880F682B6093B1
S11300F0BB0084E88093BC00ECEBF0E080818823B3
S1130100ECF78091B900887F883131F0803431F088
S113011084E108958AE0089580E0089580E00895D8
S11301209B01AC011092B90060E074E284EF90E0AE
S11301300E949404DA01C9014097A109B109B69556
S1130140A795979587958093B8000895CF93C62F68
S113015060E00E946600811108C08C2F0E94530049
S1130160811103C094E99093BC00CF910895FC01E0
S11301709381692B80810E94A600089528E0FC01E8
S1130180238360E00E94B70008950F931F93CF93D9
S11301908C01C62F64600E94B7008AE08A95F1F74B
S11301A000C06C2F6B7FC8010E94B70087EC90E001
S11301B00197F1F700C00000CF911F910F910895AE
S11301C01F93CF93DF93EC01162F0E94B700612F8A
S11301D0CE010E94C500DF91CF911F9108950F9326
S11301E01F93CF93DF938C01C62FD42F962F907F2C
S11301F0692F642BC8010E94E00080E1C89FB00110
S113020011246D2BC8010E94E000DF91CF911F9152
S11302100F9108950F931F93CF93DF93EB016881A0
S1130220662349F08C01219641E0C8010E94EF0049
S113023069916111F9CFDF91CF911F910F910895C9
S113024040E00E94EF000895CF93DF9300D000D0E8
S1130250CDB7DEB7198220E42A8324E12B8324E579
S11302602C83FE01E60FF11D2181642F620F60686B
S11302700E9420010F900F900F900F90DF91CF916B
S11302800895CF93DF93EC0161E00E9420018FE396
S11302909FE10197F1F700C0000040E060E0CE016B
S11302A00E942401DF91CF91089562E00E94200111
S11302B08FE39FE10197F1F700C000000895FC016E
S11302C06581262F246025836C600E942001089597
S11302D0CF93DF93CDB7DEB72E970FB6F894DEBF7A
S11302E00FBECDBF888769874A871B862C8784E029
S11302F08D8782E08E87423018F0822F88608C8749
S1130300222329F0413019F48C8584608C872FEFE7
S113031081EE94E0215080409040E1F700C000005D
S113032060E0CE0108960E94B7002FEF83ED90E3C2
S1130330215080409040E1F700C0000060E3CE010E
S113034008960E94B7008FE496E40197F1F700C085
S1130350000060E3CE0108960E94E0008FE496E47A
S11303600197F1F700C0000060E3CE0108960E94F7
S1130370E00087E592E00197F1F700C0000060E239
S1130380CE0108960E94E0006C856062CE0108965A
S11303900E942001CE0108960E945F01CE010896BA
S11303A00E9441016E856460CE0108960E9420017E
S11303B0CE0108960E94550187E0FE013896DE01C1
S11303C0119601900D928A95E1F729813A814B812A
S11303D05C816D817E818F8190E02E960FB6F894BA
S11303E0DEBF0FBECDBFDF91CF9108958F929F9254
S11303F0AF92BF92CF92DF92EF92FF920F931F932F
S1130400CF93DF938C01C0E0D0E02AE030E001C05C
S1130410E701B9010E948004CB017E014FEFE41A89
S1130420F40A0097A9F75E011123D4F52DC0BB206F
S11304301CF10F2EFAE0AF2EB12CF02D8FEF8816A1
S1130440980619F4FE01319601C0FE01EC0DFD1D64
S1130450C801B5010E9480049C01992324F4222739
S11304603327281B390B205D2083C801B5010E9466
S113047080048B01219710F781E090E0892080941B
S1130480C1F080E090E015C0CE0103960E94CA043A
S11304906C018DE2F601808388248A94982CC7CF5E
S11304A0CE0103960E94CA046C0188248394912C83
S11304B0BECFEC0CFD1CF701E80FF91F1082C6013A
S11304C0DF91CF911F910F91FF90EF90DF90CF902C
S11304D0BF90AF909F908F900895EF92FF920F93EB
S11304E01F93CF9320915A0130915B0140915801A1
S11304F050915901241B350B309363012093620101
S113050020915A0130915B01309359012093580195
S1130510209162013091630133231CF431952195BC
S11305203109621B730B70936101609360015091F8
S11305300A018091600190916101C0910901E091EB
S11305406001F091610100915E0110915F014091A1
S11305500801609160017091610120915C0130910A
S11305605D01589F7001599FF00C11248FE0489F42
S1130570A0011124469FC001479F900D569F900DE6
S1130580112468EE73E00E9480046E0D7F1DE01B51
S1130590F10BCE9FA001CF9F500D1124E3E4E49F03
S11305A0C001E59F900D1124680F791F260F371F96
S11305B030935D0120935C0180915C0190915D0119
S11305C080389E4334F08FE79EE390935D018093DF
S11305D05C0180915C0190915D011816190634F05C
S11305E081E090E090935D0180935C0180915C01D7
S11305F090915D0187BD809160019091610190931C
S11306005F0180935E01CF911F910F91FF90EF9056
S113061008958AB1806E8AB984B184B98BB18C6033
S11306208BB98BB18F758BB9E9E6F0E080818A6074
S11306308083E1EBF0E080818560808385E18093B5
S1130640B200E0E7F0E080818160808384B5836854
S113065084BD85B5856085BD8DB383608DBB78947D
S113066060EA76E881E090E00E94900020E042E0B9
S113067060E187E20E946801209364013093650180
S11306804093660150936701609368017093690118
S113069080936A0184E691E00E94BE00FFCF1F921E
S11306A00F920FB60F9211248F939F93189B0CC037
S11306B080915A0190915B01019690935B01809324
S11306C05A01109206010CC080915A0190915B016D
S11306D0019790935B0180935A0181E08093060116
S11306E09F918F910F900FBE0F901F9018951F929E
S11306F00F920FB60F9211242F933F934F935F9352
S11307006F937F938F939F93AF93BF93EF93FF93D5
S1130710809157018F5F809357018091570180FF2B
S113072002C05D9A19C05D988BE091E090935501E9
S11307308093540184E691E00E94410140E060E02E
S113074084E691E00E942401609154017091550166
S113075084E691E00E940A01FF91EF91BF91AF916D
S11307609F918F917F916F915F914F913F912F91C5
S11307700F900FBE0F901F9018951F920F920FB6F7
S11307800F9211242F933F934F935F936F937F9313
S11307908F939F93AF93BF93EF93FF9380915601F1
S11307A08F5F80935601199919C040E061E084E697
S11307B091E00E9424018AE080930701809157010F
S11307C080FF06C06AE070E080E090E00E946D0265
S11307D064E171E084E691E00E940A011A9920C064
S11307E0809157018F5F809357015D985F9A40E035
S11307F061E084E691E00E94240188EC8093070183
S11308008091570180FF06C068EC70E080E090E0C2
S11308100E946D0263E271E084E691E00E940A01A5
S113082080915601803509F04CC08091570180FFBA
S113083046C084E691E00E94410140E060E084E625
S113084091E00E94240162E371E084E691E00E9459
S11308500A014BE060E084E691E00E94240180916B
S11308606201909163010E94F60190935501809377
S11308705401BC0184E691E00E940A0180910601C2
S113088081110DC040E061E084E691E00E94240102
S11308906DE371E084E691E00E940A0110C080914A
S11308A00601813061F440E061E084E691E00E9459
S11308B0240169E471E084E691E00E940A01109247
S11308C0560185E18093B2008091570180FF07C0F3
S11308D06091070170E080E090E00E946D02FF915A
S11308E0EF91BF91AF919F918F917F916F915F91A4
S11308F04F913F912F910F900FBE0F901F9018951D
S113090097FB072E16F4009407D077FD09D00E94B8
S1130910B60407FC05D03EF4909581959F4F089549
S1130920709561957F4F0895A1E21A2EAA1BBB1BF7
S1130930FD010DC0AA1FBB1FEE1FFF1FA217B307A7
S1130940E407F50720F0A21BB30BE40BF50B661FBD
S1130950771F881F991F1A9469F760957095809581
S113096090959B01AC01BD01CF010895AA1BBB1B4F
S113097051E107C0AA1FBB1FA617B70710F0A61B9B
S1130980B70B881F991F5A95A9F780959095BC01BC
S1130990CD010895CF93DF938230910510F482E066
S11309A090E0E0916D01F0916E0120E030E0C0E054
S11309B0D0E0309711F14081518148175907C0F0B8
S11309C04817590761F482819381209719F09B831A
S11309D08A832BC090936E0180936D0126C02115EC
S11309E0310519F04217530718F49A01BE01DF01CB
S11309F0EF010280F381E02DDCCF2115310509F1EF
S1130A00281B390B2430310590F412968D919C915A
S1130A1013976115710521F0FB019383828304C050
S1130A2090936E0180936D01FD01329644C0FD01E7
S1130A30E20FF31F81939193225031092D933C933C
S1130A403AC020916B0130916C01232B41F4209129
S1130A5002013091030130936C0120936B012091CA
S1130A600001309101012115310541F42DB73EB744
S1130A704091040150910501241B350BE0916B0159
S1130A80F0916C01E217F307A0F42E1B3F0B28171B
S1130A90390778F0AC014E5F5F4F2417350748F0F3
S1130AA04E0F5F1F50936C0140936B0181939193A0
S1130AB002C0E0E0F0E0CF01DF91CF9108950F9301
S1130AC01F93CF93DF93009709F48CC0FC013297F6
S1130AD01382128200916D0110916E0101151105AE
S1130AE081F420813181820F931F20916B01309119
S1130AF06C012817390779F5F0936C01E0936B01C9
S1130B0071C0D80140E050E0AE17BF0750F4129610
S1130B102D913C911397AD012115310509F1D901AE
S1130B20F3CF9D01DA013383228360817181860FC3
S1130B30971F8217930769F4EC0128813981260FE6
S1130B40371F2E5F3F4F318320838A819B8193839C
S1130B508283452B29F4F0936E01E0936D0142C02A
S1130B601396FC93EE931297ED01499159919E01CE
S1130B70240F351FE217F30771F480819181840FEC
S1130B80951F029611969C938E938281938113965E
S1130B909C938E931297E0E0F0E0D80112968D9129
S1130BA09C911397009719F0F8018C01F6CF8D9161
S1130BB09C9198012E5F3F4F820F931F20916B01F0
S1130BC030916C012817390769F4309729F4109291
S1130BD06E0110926D0102C01382128210936C0197
S1130BE000936B01DF91CF911F910F910895F894B9
S1050BF0FFCF31
S1130BF200006F012000020A010A08506175736542
S1130C025F4443005042315F69735F70726573736E
S1130C126564005042325F69735F70726573736515
S1130C2264006163745F73706565643A0071756131
S1130C32795F6E676869636800717561795F74686A
S1070C4275616E0066
S9030000FC
