:100000000C9434000C9442030C9465030C9451003E
:100010000C9451000C9451000C9451000C9451001C
:100020000C9451000C94DD030C9451000C9451007D
:100030000C9451000C9451000C9451000C945100FC
:100040000C9451000C9451000C9451000C945100EC
:100050000C9451000C9451000C9451000C945100DC
:100060000C9451000C94510011241FBECFEFD8E026
:10007000DEBFCDBF11E0A0E0B1E0EAE1FCE002C0EC
:1000800005900D92A237B107D9F721E0A2E7B1E0C0
:1000900001C01D92AD38B207E1F70E9409030C942C
:1000A0000B060C9400008093BB0084E88093BC0096
:1000B000ECEBF0E080818823ECF78091B900887F39
:1000C000883211F480E0089585E10895ECEBF0E0CA
:1000D000108294EA908390819923ECF79091B90073
:1000E000987F983011F09031A9F4880F682B6093B5
:1000F000BB0084E88093BC00ECEBF0E080818823B7
:10010000ECF78091B900887F883131F0803431F08C
:1001100084E108958AE0089580E0089580E00895DC
:100120009B01AC011092B90060E074E284EF90E0B2
:100130000E94A804DA01C9014097A109B109B69546
:10014000A795979587958093B8000895CF93C62F6C
:1001500060E00E946600811108C08C2F0E9453004D
:10016000811103C094E99093BC00CF910895FC01E4
:100170009381692B80810E94A600089528E0FC01EC
:10018000238360E00E94B70008950F931F93CF93DD
:100190008C01C62F64600E94B7008AE08A95F1F74F
:1001A00000C06C2F6B7FC8010E94B70087EC90E005
:1001B0000197F1F700C00000CF911F910F910895B2
:1001C0001F93CF93DF93EC01162F0E94B700612F8E
:1001D000CE010E94C500DF91CF911F9108950F932A
:1001E0001F93CF93DF938C01C62FD42F962F907F30
:1001F000692F642BC8010E94E00080E1C89FB00114
:1002000011246D2BC8010E94E000DF91CF911F9156
:100210000F9108950F931F93CF93DF93EB016881A4
:10022000662349F08C01219641E0C8010E94EF004D
:1002300069916111F9CFDF91CF911F910F910895CD
:1002400040E00E94EF000895CF93DF9300D000D0EC
:10025000CDB7DEB7198220E42A8324E12B8324E57D
:100260002C83FE01E60FF11D2181642F620F60686F
:100270000E9420010F900F900F900F90DF91CF916F
:100280000895CF93DF93EC0161E00E9420018FE39A
:100290009FE10197F1F700C0000040E060E0CE016F
:1002A0000E942401DF91CF91089562E00E94200115
:1002B0008FE39FE10197F1F700C000000895FC0172
:1002C0006581262F246025836C600E94200108959B
:1002D000CF93DF93CDB7DEB72E970FB6F894DEBF7E
:1002E0000FBECDBF888769874A871B862C8784E02D
:1002F0008D8782E08E87423018F0822F88608C874D
:10030000222329F0413019F48C8584608C872FEFEB
:1003100081EE94E0215080409040E1F700C0000061
:1003200060E0CE0108960E94B7002FEF83ED90E3C6
:10033000215080409040E1F700C0000060E3CE0112
:1003400008960E94B7008FE496E40197F1F700C089
:10035000000060E3CE0108960E94E0008FE496E47E
:100360000197F1F700C0000060E3CE0108960E94FB
:10037000E00087E592E00197F1F700C0000060E23D
:10038000CE0108960E94E0006C856062CE0108965E
:100390000E942001CE0108960E945F01CE010896BE
:1003A0000E9441016E856460CE0108960E94200182
:1003B000CE0108960E94550187E0FE013896DE01C5
:1003C000119601900D928A95E1F729813A814B812E
:1003D0005C816D817E818F8190E02E960FB6F894BE
:1003E000DEBF0FBECDBFDF91CF9108958F929F9258
:1003F000AF92BF92CF92DF92EF92FF920F931F9333
:10040000CF93DF938C01C0E0D0E02AE030E001C060
:10041000E701B9010E949404CB017E014FEFE41A79
:10042000F40A0097A9F75E011123D4F52DC0BB2073
:100430001CF10F2EFAE0AF2EB12CF02D8FEF8816A5
:10044000980619F4FE01319601C0FE01EC0DFD1D68
:10045000C801B5010E9494049C01992324F4222729
:100460003327281B390B205D2083C801B5010E946A
:1004700094048B01219710F781E090E0892080940B
:10048000C1F080E090E015C0CE0103960E94DE042A
:100490006C018DE2F601808388248A94982CC7CF62
:1004A000CE0103960E94DE046C0188248394912C73
:1004B000BECFEC0CFD1CF701E80FF91F1082C6013E
:1004C000DF91CF911F910F91FF90EF90DF90CF9030
:1004D000BF90AF909F908F900895EF92FF920F93EF
:1004E0001F93CF932091780130917901409176014B
:1004F00050917701241B350B3093810120938001AB
:100500002091780130917901309377012093760121
:10051000209180013091810133231CF43195219584
:100520003109621B730B70937F0160937E015091C0
:10053000090180917E0190917F01C0910801E091B5
:100540007E01F0917F0100917C0110917D0140912D
:10055000070160917E0170917F0120917A013091B5
:100560007B01589F7001599FF00C11248FE0489F28
:10057000A0011124469FC001479F900D569F900DEA
:10058000112468EE73E00E9494046E0D7F1DE01B41
:10059000F10BCE9FA001CF9F500D1124E3E4E49F07
:1005A000C001E59F900D1124680F791F260F371F9A
:1005B00030937B0120937A0180917A0190917B01A5
:1005C00080389E4334F08FE79EE390937B018093C5
:1005D0007A0180917A0190917B011816190634F006
:1005E00081E090E090937B0180937A0180917A0181
:1005F00090917B0187BD80917E0190917F019093C6
:100600007D0180937C01CF911F910F91FF90EF901E
:10061000089580EE8AB914B88CE08BB98AE0809393
:10062000690085E08093B10085E18093B20081E0AC
:100630008093700084B5836884BD85B5856085BD71
:1006400083E08DBB789460EA76E881E090E00E94D8
:10065000900020E042E060E187E20E946801209380
:10066000820130938301409384015093850160930C
:100670008601709387018093880182E891E00E944F
:10068000BE00FFCF1F920F920FB60F9211248F93CF
:100690009F93189B0AC080917801909179010196EF
:1006A000909379018093780109C0809178019091AD
:1006B0007901019790937901809378019F918F91AF
:1006C0000F900FBE0F901F9018951F920F920FB6AC
:1006D0000F9211242F933F934F935F936F937F93C8
:1006E0008F939F93AF93BF93EF93FF938091750187
:1006F0008F5F809375018091750180FF34C05D9A92
:100700006091060170E080E090E00E946D0282E856
:1007100091E00E94410140E061E082E891E00E94A6
:1007200024016AE071E082E891E00E940A01189BCE
:100730000DC040E060E082E891E00E94240161E1A8
:1007400071E082E891E00E940A0126C040E060E08A
:1007500082E891E00E9424016DE171E082E891E07D
:100760000E940A0119C05D9888E291E0909373019C
:100770008093720182E891E00E94410140E060E0D4
:1007800082E891E00E9424016091720170917301EE
:1007900082E891E00E940A01FF91EF91BF91AF9131
:1007A0009F918F917F916F915F914F913F912F9189
:1007B0000F900FBE0F901F9018951F920F920FB6BB
:1007C0000F9211242F933F934F935F936F937F93D7
:1007D0008F939F93AF93BF93EF93FF938091740197
:1007E0008F5F80937401199919C040E061E082E83D
:1007F00091E00E9424018AE08093060180917501B6
:1008000080FF06C06AE070E080E090E00E946D0228
:1008100061E371E082E891E00E940A011A991AC02E
:100820005F9840E061E082E891E00E94240188EC5A
:10083000809306018091750180FF06C068EC70E02E
:1008400080E090E00E946D0260E471E082E891E057
:100850000E940A0180917401803509F046C08091A0
:10086000750180FF40C082E891E00E94410140E0B4
:1008700060E082E891E00E9424016FE471E082E888
:1008800091E00E940A014BE060E082E891E00E9462
:10089000240180917A0190917B010E94F60190934E
:1008A000730180937201BC0182E891E00E940A0109
:1008B000189B0DC040E061E082E891E00E942401B5
:1008C0006AE571E082E891E00E940A010CC040E014
:1008D00061E082E891E00E94240166E671E082E82E
:1008E00091E00E940A011092740185E18093B200A8
:1008F0008091750180FF07C06091060170E080E083
:1009000090E00E946D02FF91EF91BF91AF919F9196
:100910008F917F916F915F914F913F912F910F90A8
:100920000FBE0F901F90189597FB072E16F400949A
:1009300007D077FD09D00E94CA0407FC05D03EF419
:10094000909581959F4F0895709561957F4F08957B
:10095000A1E21A2EAA1BBB1BFD010DC0AA1FBB1FC3
:10096000EE1FFF1FA217B307E407F50720F0A21B35
:10097000B30BE40BF50B661F771F881F991F1A94A2
:1009800069F760957095809590959B01AC01BD01CC
:10099000CF010895AA1BBB1B51E107C0AA1FBB1FB3
:1009A000A617B70710F0A61BB70B881F991F5A95FB
:1009B000A9F780959095BC01CD010895CF93DF9361
:1009C0008230910510F482E090E0E0918B01F0918B
:1009D0008C0120E030E0C0E0D0E0309711F14081A0
:1009E000518148175907C0F04817590761F48281AF
:1009F0009381209719F09B838A832BC090938C015D
:100A000080938B0126C02115310519F04217530739
:100A100018F49A01BE01DF01EF010280F381E02D9D
:100A2000DCCF2115310509F1281B390B24303105A4
:100A300090F412968D919C9113976115710521F098
:100A4000FB019383828304C090938C0180938B017C
:100A5000FD01329644C0FD01E20FF31F8193919393
:100A6000225031092D933C933AC020918901309155
:100A70008A01232B41F4209102013091030130932C
:100A80008A012093890120910001309101012115F3
:100A9000310541F42DB73EB7409104015091050155
:100AA000241B350BE0918901F0918A01E217F307CD
:100AB000A0F42E1B3F0B2817390778F0AC014E5FCE
:100AC0005F4F2417350748F04E0F5F1F50938A0180
:100AD000409389018193919302C0E0E0F0E0CF015F
:100AE000DF91CF9108950F931F93CF93DF930097DA
:100AF00009F48CC0FC0132971382128200918B01A1
:100B000010918C010115110581F420813181820F32
:100B1000931F2091890130918A012817390779F5AF
:100B2000F0938A01E093890171C0D80140E050E060
:100B3000AE17BF0750F412962D913C911397AD015B
:100B40002115310509F1D901F3CF9D01DA01338374
:100B5000228360817181860F971F8217930769F442
:100B6000EC0128813981260F371F2E5F3F4F3183DB
:100B700020838A819B8193838283452B29F4F09380
:100B80008C01E0938B0142C01396FC93EE93129775
:100B9000ED01499159919E01240F351FE217F3078A
:100BA00071F480819181840F951F029611969C9318
:100BB0008E938281938113969C938E931297E0E09B
:100BC000F0E0D80112968D919C911397009719F03F
:100BD000F8018C01F6CF8D919C9198012E5F3F4FCB
:100BE000820F931F2091890130918A0128173907BC
:100BF00069F4309729F410928C0110928B0102C095
:100C00001382128210938A0100938901DF91CF91A0
:0A0C10001F910F910895F894FFCF93
:100C1A0000008D0120000A010A0852756E5F4443E4
:100C2A0000717561795F6E676869636800717561E3
:100C3A00795F746875616E0050617573655F4443CE
:100C4A00005042315F69735F707265737365640047
:100C5A005042325F69735F707265737365640061D5
:100C6A0063745F73706565643A0071756179206EAB
:100C7A006768696368007175617920746875616E67
:020C8A00000068
:00000001FF
