S0120000746573745F6D6F746F722E73726563C2
S11300000C9434000C9442030C9465030C9451003A
S11300100C9451000C9451000C9451000C94510018
S11300200C9451000C94DC030C9451000C9451007A
S11300300C9451000C9451000C9451000C945100F8
S11300400C9451000C9451000C9451000C945100E8
S11300500C9451000C9451000C9451000C945100D8
S11300600C9451000C94510011241FBECFEFD8E022
S1130070DEBFCDBF11E0A0E0B1E0E4EAFBE002C0E6
S113008005900D92A235B107D9F721E0A2E5B1E0C0
S113009001C01D92AD36B207E1F70E9409030C942A
S11300A0D0050C9400008093BB0084E88093BC00CE
S11300B0ECEBF0E080818823ECF78091B900887F35
S11300C0883211F480E0089585E10895ECEBF0E0C6
S11300D0108294EA908390819923ECF79091B9006F
S11300E0987F983011F09031A9F4880F682B6093B1
S11300F0BB0084E88093BC00ECEBF0E080818823B3
S1130100ECF78091B900887F883131F0803431F088
S113011084E108958AE0089580E0089580E00895D8
S11301209B01AC011092B90060E074E284EF90E0AE
S11301300E946D04DA01C9014097A109B109B6957D
S1130140A795979587958093B8000895CF93C62F68
S113015060E00E946600811108C08C2F0E94530049
S1130160811103C094E99093BC00CF910895FC01E0
S11301709381692B80810E94A600089528E0FC01E8
S1130180238360E00E94B70008950F931F93CF93D9
S11301908C01C62F64600E94B7008AE08A95F1F74B
S11301A000C06C2F6B7FC8010E94B70087EC90E001
S11301B00197F1F700C00000CF911F910F910895AE
S11301C01F93CF93DF93EC01162F0E94B700612F8A
S11301D0CE010E94C500DF91CF911F9108950F9326
S11301E01F93CF93DF938C01C62FD42F962F907F2C
S11301F0692F642BC8010E94E00080E1C89FB00110
S113020011246D2BC8010E94E000DF91CF911F9152
S11302100F9108950F931F93CF93DF93EB016881A0
S1130220662349F08C01219641E0C8010E94EF0049
S113023069916111F9CFDF91CF911F910F910895C9
S113024040E00E94EF000895CF93DF9300D000D0E8
S1130250CDB7DEB7198220E42A8324E12B8324E579
S11302602C83FE01E60FF11D2181642F620F60686B
S11302700E9420010F900F900F900F90DF91CF916B
S11302800895CF93DF93EC0161E00E9420018FE396
S11302909FE10197F1F700C0000040E060E0CE016B
S11302A00E942401DF91CF91089562E00E94200111
S11302B08FE39FE10197F1F700C000000895FC016E
S11302C06581262F246025836C600E942001089597
S11302D0CF93DF93CDB7DEB72E970FB6F894DEBF7A
S11302E00FBECDBF888769874A871B862C8784E029
S11302F08D8782E08E87423018F0822F88608C8749
S1130300222329F0413019F48C8584608C872FEFE7
S113031081EE94E0215080409040E1F700C000005D
S113032060E0CE0108960E94B7002FEF83ED90E3C2
S1130330215080409040E1F700C0000060E3CE010E
S113034008960E94B7008FE496E40197F1F700C085
S1130350000060E3CE0108960E94E0008FE496E47A
S11303600197F1F700C0000060E3CE0108960E94F7
S1130370E00087E592E00197F1F700C0000060E239
S1130380CE0108960E94E0006C856062CE0108965A
S11303900E942001CE0108960E945F01CE010896BA
S11303A00E9441016E856460CE0108960E9420017E
S11303B0CE0108960E94550187E0FE013896DE01C1
S11303C0119601900D928A95E1F729813A814B812A
S11303D05C816D817E818F8190E02E960FB6F894BA
S11303E0DEBF0FBECDBFDF91CF9108958F929F9254
S11303F0AF92BF92CF92DF92EF92FF920F931F932F
S1130400CF93DF938C01C0E0D0E02AE030E001C05C
S1130410E701B9010E945904CB017E014FEFE41AB0
S1130420F40A0097A9F75E011123D4F52DC0BB206F
S11304301CF10F2EFAE0AF2EB12CF02D8FEF8816A1
S1130440980619F4FE01319601C0FE01EC0DFD1D64
S1130450C801B5010E9459049C01992324F4222760
S11304603327281B390B205D2083C801B5010E9466
S113047059048B01219710F781E090E08920809442
S1130480C1F080E090E015C0CE0103960E94A30461
S11304906C018DE2F601808388248A94982CC7CF5E
S11304A0CE0103960E94A3046C0188248394912CAA
S11304B0BECFEC0CFD1CF701E80FF91F1082C6013A
S11304C0DF91CF911F910F91FF90EF90DF90CF902C
S11304D0BF90AF909F908F900895EF92FF920F93EB
S11304E01F93CF93209158013091590140915601A7
S11304F050915701241B350B309361012093600107
S1130500209158013091590130935701209356019D
S1130510209160013091610133231CF431952195C0
S11305203109621B730B70935F0160935E015091FC
S1130530080180915E0190915F01C0910701E091F3
S11305405E01F0915F0100915C0110915D014091A9
S1130550060160915E0170915F0120915A01309112
S11305605B01589F7001599FF00C11248FE0489F44
S1130570A0011124469FC001479F900D569F900DE6
S1130580112468EE73E00E9459046E0D7F1DE01B78
S1130590F10BCE9FA001CF9F500D1124E3E4E49F03
S11305A0C001E59F900D1124680F791F260F371F96
S11305B030935B0120935A0180915A0190915B0121
S11305C080389E4334F08FE79EE390935B018093E1
S11305D05A0180915A0190915B011816190634F062
S11305E081E090E090935B0180935A0180915A01DD
S11305F090915B0187BD80915E0190915F01909322
S11306005D0180935C01CF911F910F91FF90EF905A
S1130610089580EE8AB914B88CE08BB98AE080938F
S1130620690085E08093B10085E18093B20081E0A8
S11306308093700084B5836884BD85B5856085BD6D
S113064083E08DBB789460EA76E881E090E00E94D4
S1130650900020E042E060E187E20E94680120937C
S11306606201309363014093640150936501609388
S11306706601709367018093680182E691E00E94AD
S1130680BE00FFCF1F920F920FB60F9211248F93CB
S11306909F93189B0AC0809158019091590101962B
S11306A0909359018093580109C080915801909109
S11306B05901019790935901809358019F918F910B
S11306C00F900FBE0F901F9018951F920F920FB6A8
S11306D00F9211242F933F934F935F936F937F93C4
S11306E08F939F93AF93BF93EF93FF9380915501A3
S11306F08F5F809355018091550180FF33C05D9ACF
S113070064E670E080E090E00E946D0282E691E091
S11307100E94410140E061E082E691E00E942401F0
S113072069E071E082E691E00E940A01189B0DC025
S113073040E060E082E691E00E94240160E171E023
S113074082E691E00E940A0126C040E060E082E671
S113075091E00E9424016CE171E082E691E00E9444
S11307600A0119C05D9887E291E090935301809348
S1130770520182E691E00E94410140E061E082E69C
S113078091E00E942401609152017091530182E62C
S113079091E00E940A01FF91EF91BF91AF919F9167
S11307A08F917F916F915F914F913F912F910F9016
S11307B00FBE0F901F9018951F920F920FB60F92B5
S11307C011242F933F934F935F936F937F938F9352
S11307D09F93AF93BF93EF93FF93809154018F5FE7
S11307E080935401803509F046C08091550180FF03
S11307F040C082E691E00E94410140E060E082E670
S113080091E00E94240160E371E082E691E00E949D
S11308100A014BE060E082E691E00E9424018091AD
S11308205A0190915B010E94F601909353018093C9
S11308305201BC0182E691E00E940A01189B0DC09E
S113084040E061E082E691E00E9424016BE371E004
S113085082E691E00E940A010CC040E061E082E679
S113086091E00E94240167E471E082E691E00E9435
S11308700A011092540185E18093B20080915501E0
S113088080FF06C068EC70E080E090E00E946D029A
S1130890FF91EF91BF91AF919F918F917F916F9154
S11308A05F914F913F912F910F900FBE0F901F902A
S11308B0189597FB072E16F4009407D077FD09D0FE
S11308C00E948F0407FC05D03EF4909581959F4FBC
S11308D00895709561957F4F0895A1E21A2EAA1B81
S11308E0BB1BFD010DC0AA1FBB1FEE1FFF1FA217DC
S11308F0B307E407F50720F0A21BB30BE40BF50BD9
S1130900661F771F881F991F1A9469F76095709561
S1130910809590959B01AC01BD01CF010895AA1B60
S1130920BB1B51E107C0AA1FBB1FA617B70710F0D6
S1130930A61BB70B881F991F5A95A9F78095909508
S1130940BC01CD010895CF93DF938230910510F45B
S113095082E090E0E0916B01F0916C0120E030E0E6
S1130960C0E0D0E0309711F1408151814817590718
S1130970C0F04817590761F482819381209719F0D8
S11309809B838A832BC090936C0180936B0126C058
S11309902115310519F04217530718F49A01BE01C5
S11309A0DF01EF010280F381E02DDCCF2115310559
S11309B009F1281B390B2430310590F412968D91DE
S11309C09C9113976115710521F0FB019383828338
S11309D004C090936C0180936B01FD01329644C076
S11309E0FD01E20FF31F81939193225031092D935E
S11309F03C933AC02091690130916A01232B41F460
S1130A00209102013091030130936A01209369011E
S1130A1020910001309101012115310541F42DB7D8
S1130A203EB74091040150910501241B350BE09120
S1130A306901F0916A01E217F307A0F42E1B3F0B42
S1130A402817390778F0AC014E5F5F4F241735073C
S1130A5048F04E0F5F1F50936A01409369018193E0
S1130A60919302C0E0E0F0E0CF01DF91CF910895CF
S1130A700F931F93CF93DF93009709F48CC0FC016D
S1130A8032971382128200916B0110916C0101154F
S1130A90110581F420813181820F931F2091690116
S1130AA030916A012817390779F5F0936A01E093C8
S1130AB0690171C0D80140E050E0AE17BF0750F49F
S1130AC012962D913C911397AD012115310509F131
S1130AD0D901F3CF9D01DA013383228360817181CF
S1130AE0860F971F8217930769F4EC0128813981D7
S1130AF0260F371F2E5F3F4F318320838A819B81CE
S1130B0093838283452B29F4F0936C01E0936B016A
S1130B1042C01396FC93EE931297ED0149915991BB
S1130B209E01240F351FE217F30771F48081918130
S1130B30840F951F029611969C938E9382819381C4
S1130B4013969C938E931297E0E0F0E0D8011296EE
S1130B508D919C911397009719F0F8018C01F6CFB1
S1130B608D919C9198012E5F3F4F820F931F20918E
S1130B70690130916A012817390769F4309729F41B
S1130B8010926C0110926B0102C0138212821093B6
S1130B906A0100936901DF91CF911F910F9108952C
S1070BA0F894FFCFF3
S1130BA400006D012000010A0852756E5F44430081
S1130BB4717561795F6E67686963680071756179DD
S1130BC45F746875616E0050617573655F444300BA
S1130BD46163745F73706565643A0071756179204B
S1130BE46E676869636800717561792074687561FA
S1050BF46E008D
S9030000FC
