:100000000C9434000C9442030C9465030C9451003E
:100010000C9451000C9451000C9451000C9451001C
:100020000C9451000C94DC030C9451000C9451007E
:100030000C9451000C9451000C9451000C945100FC
:100040000C9451000C9451000C9451000C945100EC
:100050000C9451000C9451000C9451000C945100DC
:100060000C9451000C94510011241FBECFEFD8E026
:10007000DEBFCDBF11E0A0E0B1E0EAECFBE002C0E2
:1000800005900D92A236B107D9F721E0A2E6B1E0C2
:1000900001C01D92AD37B207E1F70E9409030C942D
:1000A000E3050C9400008093BB0084E88093BC00BF
:1000B000ECEBF0E080818823ECF78091B900887F39
:1000C000883211F480E0089585E10895ECEBF0E0CA
:1000D000108294EA908390819923ECF79091B90073
:1000E000987F983011F09031A9F4880F682B6093B5
:1000F000BB0084E88093BC00ECEBF0E080818823B7
:10010000ECF78091B900887F883131F0803431F08C
:1001100084E108958AE0089580E0089580E00895DC
:100120009B01AC011092B90060E074E284EF90E0B2
:100130000E948004DA01C9014097A109B109B6956E
:10014000A795979587958093B8000895CF93C62F6C
:1001500060E00E946600811108C08C2F0E9453004D
:10016000811103C094E99093BC00CF910895FC01E4
:100170009381692B80810E94A600089528E0FC01EC
:10018000238360E00E94B70008950F931F93CF93DD
:100190008C01C62F64600E94B7008AE08A95F1F74F
:1001A00000C06C2F6B7FC8010E94B70087EC90E005
:1001B0000197F1F700C00000CF911F910F910895B2
:1001C0001F93CF93DF93EC01162F0E94B700612F8E
:1001D000CE010E94C500DF91CF911F9108950F932A
:1001E0001F93CF93DF938C01C62FD42F962F907F30
:1001F000692F642BC8010E94E00080E1C89FB00114
:1002000011246D2BC8010E94E000DF91CF911F9156
:100210000F9108950F931F93CF93DF93EB016881A4
:10022000662349F08C01219641E0C8010E94EF004D
:1002300069916111F9CFDF91CF911F910F910895CD
:1002400040E00E94EF000895CF93DF9300D000D0EC
:10025000CDB7DEB7198220E42A8324E12B8324E57D
:100260002C83FE01E60FF11D2181642F620F60686F
:100270000E9420010F900F900F900F90DF91CF916F
:100280000895CF93DF93EC0161E00E9420018FE39A
:100290009FE10197F1F700C0000040E060E0CE016F
:1002A0000E942401DF91CF91089562E00E94200115
:1002B0008FE39FE10197F1F700C000000895FC0172
:1002C0006581262F246025836C600E94200108959B
:1002D000CF93DF93CDB7DEB72E970FB6F894DEBF7E
:1002E0000FBECDBF888769874A871B862C8784E02D
:1002F0008D8782E08E87423018F0822F88608C874D
:10030000222329F0413019F48C8584608C872FEFEB
:1003100081EE94E0215080409040E1F700C0000061
:1003200060E0CE0108960E94B7002FEF83ED90E3C6
:10033000215080409040E1F700C0000060E3CE0112
:1003400008960E94B7008FE496E40197F1F700C089
:10035000000060E3CE0108960E94E0008FE496E47E
:100360000197F1F700C0000060E3CE0108960E94FB
:10037000E00087E592E00197F1F700C0000060E23D
:10038000CE0108960E94E0006C856062CE0108965E
:100390000E942001CE0108960E945F01CE010896BE
:1003A0000E9441016E856460CE0108960E94200182
:1003B000CE0108960E94550187E0FE013896DE01C5
:1003C000119601900D928A95E1F729813A814B812E
:1003D0005C816D817E818F8190E02E960FB6F894BE
:1003E000DEBF0FBECDBFDF91CF9108958F929F9258
:1003F000AF92BF92CF92DF92EF92FF920F931F9333
:10040000CF93DF938C01C0E0D0E02AE030E001C060
:10041000E701B9010E946C04CB017E014FEFE41AA1
:10042000F40A0097A9F75E011123D4F52DC0BB2073
:100430001CF10F2EFAE0AF2EB12CF02D8FEF8816A5
:10044000980619F4FE01319601C0FE01EC0DFD1D68
:10045000C801B5010E946C049C01992324F4222751
:100460003327281B390B205D2083C801B5010E946A
:100470006C048B01219710F781E090E08920809433
:10048000C1F080E090E015C0CE0103960E94B60452
:100490006C018DE2F601808388248A94982CC7CF62
:1004A000CE0103960E94B6046C0188248394912C9B
:1004B000BECFEC0CFD1CF701E80FF91F1082C6013E
:1004C000DF91CF911F910F91FF90EF90DF90CF9030
:1004D000BF90AF909F908F900895EF92FF920F93EF
:1004E0001F93CF932091680130916901409166017B
:1004F00050916701241B350B3093710120937001DB
:100500002091680130916901309367012093660161
:10051000209170013091710133231CF431952195A4
:100520003109621B730B70936F0160936E015091E0
:10053000090180916E0190916F01C0910801E091D5
:100540006E01F0916F0100916C0110916D0140916D
:10055000070160916E0170916F0120916A013091E5
:100560006B01589F7001599FF00C11248FE0489F38
:10057000A0011124469FC001479F900D569F900DEA
:10058000112468EE73E00E946C046E0D7F1DE01B69
:10059000F10BCE9FA001CF9F500D1124E3E4E49F07
:1005A000C001E59F900D1124680F791F260F371F9A
:1005B00030936B0120936A0180916A0190916B01E5
:1005C00080389E4334F08FE79EE390936B018093D5
:1005D0006A0180916A0190916B011816190634F036
:1005E00081E090E090936B0180936A0180916A01B1
:1005F00090916B0187BD80916E0190916F019093F6
:100600006D0180936C01CF911F910F91FF90EF903E
:10061000089580EE8AB914B88CE08BB98AE0809393
:10062000690085E08093B10085E18093B20081E0AC
:100630008093700084B5836884BD85B5856085BD71
:1006400083E08DBB789460EA76E881E090E00E94D8
:10065000900020E042E060E187E20E946801209380
:10066000720130937301409374015093750160934C
:100670007601709377018093780182E791E00E9480
:10068000BE00FFCF1F920F920FB60F9211248F93CF
:100690009F93189B0AC0809168019091690101960F
:1006A000909369018093680109C0809168019091DD
:1006B0006901019790936901809368019F918F91DF
:1006C0000F900FBE0F901F9018951F920F920FB6AC
:1006D0000F9211242F933F934F935F936F937F93C8
:1006E0008F939F93AF93BF93EF93FF938091650197
:1006F0008F5F809365018091650180FF33C05D9AB3
:1007000064E670E080E090E00E946D0282E791E094
:100710000E94410140E061E082E791E00E942401F3
:100720006AE071E082E791E00E940A01189B0DC027
:1007300040E060E082E791E00E94240161E171E025
:1007400082E791E00E940A0126C040E060E082E773
:1007500091E00E9424016DE171E082E791E00E9446
:100760000A0119C05D9888E291E09093630180933B
:10077000620182E791E00E94410140E060E082E78F
:1007800091E00E942401609162017091630182E70F
:1007900091E00E940A01FF91EF91BF91AF919F916B
:1007A0008F917F916F915F914F913F912F910F901A
:1007B0000FBE0F901F9018951F920F920FB60F92B9
:1007C00011242F933F934F935F936F937F938F9356
:1007D0009F93AF93BF93EF93FF93809164018F5FDB
:1007E0008093640119990FC040E061E082E791E0D5
:1007F0000E94240184E68093060161E371E082E7B0
:1008000091E00E940A0180916401803509F046C0A0
:100810008091650180FF40C082E791E00E94410124
:1008200040E060E082E791E00E94240160E471E032
:1008300082E791E00E940A014BE060E082E791E0EC
:100840000E94240180916A0190916B010E94F6013F
:100850009093630180936201BC0182E791E00E9462
:100860000A01189B0DC040E061E082E791E00E9420
:1008700024016BE471E082E791E00E940A010CC060
:1008800040E061E082E791E00E94240167E571E0C9
:1008900082E791E00E940A011092640185E1809351
:1008A000B2008091650180FF06C068EC70E080E0D6
:1008B00090E00E946D02FF91EF91BF91AF919F91E7
:1008C0008F917F916F915F914F913F912F910F90F9
:1008D0000FBE0F901F90189597FB072E16F40094EB
:1008E00007D077FD09D00E94A20407FC05D03EF492
:1008F000909581959F4F0895709561957F4F0895CC
:10090000A1E21A2EAA1BBB1BFD010DC0AA1FBB1F13
:10091000EE1FFF1FA217B307E407F50720F0A21B85
:10092000B30BE40BF50B661F771F881F991F1A94F2
:1009300069F760957095809590959B01AC01BD011C
:10094000CF010895AA1BBB1B51E107C0AA1FBB1F03
:10095000A617B70710F0A61BB70B881F991F5A954B
:10096000A9F780959095BC01CD010895CF93DF93B1
:100970008230910510F482E090E0E0917B01F091EB
:100980007C0120E030E0C0E0D0E0309711F1408100
:10099000518148175907C0F04817590761F48281FF
:1009A0009381209719F09B838A832BC090937C01BD
:1009B00080937B0126C02115310519F0421753079A
:1009C00018F49A01BE01DF01EF010280F381E02DEE
:1009D000DCCF2115310509F1281B390B24303105F5
:1009E00090F412968D919C9113976115710521F0E9
:1009F000FB019383828304C090937C0180937B01ED
:100A0000FD01329644C0FD01E20FF31F81939193E3
:100A1000225031092D933C933AC0209179013091B5
:100A20007A01232B41F4209102013091030130938C
:100A30007A01209379012091000130910101211563
:100A4000310541F42DB73EB74091040150910501A5
:100A5000241B350BE0917901F0917A01E217F3073D
:100A6000A0F42E1B3F0B2817390778F0AC014E5F1E
:100A70005F4F2417350748F04E0F5F1F50937A01E0
:100A8000409379018193919302C0E0E0F0E0CF01BF
:100A9000DF91CF9108950F931F93CF93DF9300972A
:100AA00009F48CC0FC0132971382128200917B0101
:100AB00010917C010115110581F420813181820F93
:100AC000931F2091790130917A012817390779F520
:100AD000F0937A01E093790171C0D80140E050E0D1
:100AE000AE17BF0750F412962D913C911397AD01AC
:100AF0002115310509F1D901F3CF9D01DA013383C5
:100B0000228360817181860F971F8217930769F492
:100B1000EC0128813981260F371F2E5F3F4F31832B
:100B200020838A819B8193838283452B29F4F093D0
:100B30007C01E0937B0142C01396FC93EE931297E5
:100B4000ED01499159919E01240F351FE217F307DA
:100B500071F480819181840F951F029611969C9368
:100B60008E938281938113969C938E931297E0E0EB
:100B7000F0E0D80112968D919C911397009719F08F
:100B8000F8018C01F6CF8D919C9198012E5F3F4F1B
:100B9000820F931F2091790130917A01281739072C
:100BA00069F4309729F410927C0110927B0102C005
:100BB0001382128210937A0100937901DF91CF9111
:0A0BC0001F910F910895F894FFCFE4
:100BCA0000007D01200005010A0852756E5F44434A
:100BDA0000717561795F6E67686963680071756134
:100BEA00795F746875616E0050617573655F44431F
:100BFA00005042315F69735F707265737365640098
:100C0A006163745F73706565643A00717561792018
:100C1A006E676869636800717561792074687561C7
:020C2A006E005A
:00000001FF
